{
  "contractName": "Lottery",
  "abi": [
    {
      "inputs": [],
      "payable": false,
      "stateMutability": "nonpayable",
      "type": "constructor"
    },
    {
      "constant": true,
      "inputs": [],
      "name": "get_owner",
      "outputs": [
        {
          "internalType": "address",
          "name": "",
          "type": "address"
        }
      ],
      "payable": false,
      "stateMutability": "view",
      "type": "function"
    },
    {
      "constant": false,
      "inputs": [],
      "name": "join_lottery",
      "outputs": [],
      "payable": true,
      "stateMutability": "payable",
      "type": "function"
    },
    {
      "constant": false,
      "inputs": [],
      "name": "find_winner",
      "outputs": [
        {
          "internalType": "bool",
          "name": "",
          "type": "bool"
        }
      ],
      "payable": false,
      "stateMutability": "nonpayable",
      "type": "function"
    },
    {
      "constant": true,
      "inputs": [],
      "name": "get_lottery_balance",
      "outputs": [
        {
          "internalType": "uint256",
          "name": "",
          "type": "uint256"
        }
      ],
      "payable": false,
      "stateMutability": "view",
      "type": "function"
    },
    {
      "constant": false,
      "inputs": [],
      "name": "get_winner",
      "outputs": [
        {
          "internalType": "address",
          "name": "",
          "type": "address"
        }
      ],
      "payable": false,
      "stateMutability": "nonpayable",
      "type": "function"
    }
  ],
  "bytecode": "0x608060405234801561001057600080fd5b50336000806101000a81548173ffffffffffffffffffffffffffffffffffffffff021916908373ffffffffffffffffffffffffffffffffffffffff1602179055506000809054906101000a900473ffffffffffffffffffffffffffffffffffffffff16600260006101000a81548173ffffffffffffffffffffffffffffffffffffffff021916908373ffffffffffffffffffffffffffffffffffffffff1602179055506000600260146101000a81548160ff0219169083151502179055506001600260156101000a81548160ff021916908315150217905550610781806100f86000396000f3fe60806040526004361061004a5760003560e01c80630ac298dc1461004f5780632943b8cc146100a65780636a839a51146100b05780638ef5a5bf146100db578063bb4c4f1c1461010a575b600080fd5b34801561005b57600080fd5b50610064610161565b604051808273ffffffffffffffffffffffffffffffffffffffff1673ffffffffffffffffffffffffffffffffffffffff16815260200191505060405180910390f35b6100ae61018a565b005b3480156100bc57600080fd5b506100c56102be565b6040518082815260200191505060405180910390f35b3480156100e757600080fd5b506100f06102c6565b604051808215151515815260200191505060405180910390f35b34801561011657600080fd5b5061011f61038f565b604051808273ffffffffffffffffffffffffffffffffffffffff1673ffffffffffffffffffffffffffffffffffffffff16815260200191505060405180910390f35b60008060009054906101000a900473ffffffffffffffffffffffffffffffffffffffff16905090565b6000809054906101000a900473ffffffffffffffffffffffffffffffffffffffff1673ffffffffffffffffffffffffffffffffffffffff163373ffffffffffffffffffffffffffffffffffffffff16141561024d576040517f08c379a00000000000000000000000000000000000000000000000000000000081526004018080602001828103825260188152602001807f4f776e65722063616e6e6f74207061727469636970617465000000000000000081525060200191505060405180910390fd5b343373ffffffffffffffffffffffffffffffffffffffff1631116102bc576040517f08c379a000000000000000000000000000000000000000000000000000000000815260040180806020018281038252602181526020018061072c6021913960400191505060405180910390fd5b565b600047905090565b60008060009054906101000a900473ffffffffffffffffffffffffffffffffffffffff1673ffffffffffffffffffffffffffffffffffffffff163373ffffffffffffffffffffffffffffffffffffffff161461036d576040517f08c379a00000000000000000000000000000000000000000000000000000000081526004018080602001828103825260388152602001806106f46038913960400191505060405180910390fd5b6001600260146101000a81548160ff0219169083151502179055506001905090565b6000600260149054906101000a900460ff16610413576040517f08c379a00000000000000000000000000000000000000000000000000000000081526004018080602001828103825260148152602001807f57696e6e6572206e6f7420666f756e642079657400000000000000000000000081525060200191505060405180910390fd5b3373ffffffffffffffffffffffffffffffffffffffff16600260009054906101000a900473ffffffffffffffffffffffffffffffffffffffff1673ffffffffffffffffffffffffffffffffffffffff1614156104ba576040517f08c379a00000000000000000000000000000000000000000000000000000000081526004018080602001828103825260248152602001806106d06024913960400191505060405180910390fd5b6000600260156101000a81548160ff021916908315150217905550600260159054906101000a900460ff161561053b576040517f08c379a000000000000000000000000000000000000000000000000000000000815260040180806020018281038252603481526020018061069c6034913960400191505060405180910390fd5b600061054b6001805490506105ee565b90506001818154811061055a57fe5b9060005260206000200160009054906101000a900473ffffffffffffffffffffffffffffffffffffffff16600260006101000a81548173ffffffffffffffffffffffffffffffffffffffff021916908373ffffffffffffffffffffffffffffffffffffffff160217905550600260009054906101000a900473ffffffffffffffffffffffffffffffffffffffff1691505090565b6000814442600160405160200180848152602001838152602001828054801561066c57602002820191906000526020600020905b8160009054906101000a900473ffffffffffffffffffffffffffffffffffffffff1673ffffffffffffffffffffffffffffffffffffffff1681526020019060010190808311610622575b505093505050506040516020818303038152906040528051906020012060001c8161069357fe5b06905091905056fe617420746869732c20706f696e74732c206e6577207061727469636970616e74732073686f756c6420626520616c6c6f7765642157696e6e65722063616e6e6f7420626520746865206c6f74746572792063726561746f724c6f74746572792063726561746f7220697320746865206f6e6c79206f6e652077686f2063616e206465636c61726520612077696e6e65724e6f7420656e6f7567682062616c616e636520696e20746865206163636f756e74a265627a7a723158204b7ea5d0a6b2e4230b6b1625ab02582340654c1cb3dd4b5f993afa1c68882d6064736f6c63430005100032",
  "source": "pragma solidity ^0.5.0;\n\ncontract Lottery {\n  address _owner;\n  address[] _participants;\n  address _winner;\n  bool _found_winner;\n  bool _allow_new_participants;\n\n  constructor() public {\n    _owner = msg.sender;\n    _winner = _owner;\n    _found_winner = false;\n    _allow_new_participants=true;\n  }\n\n  function get_owner() public view returns(address){\n    return _owner;\n  }\n\n  function join_lottery() public payable{\n    require(msg.sender != _owner, \"Owner cannot participate\");\n    require(msg.sender.balance > msg.value, \"Not enough balance in the account\");\n  }\n\n  function find_winner() public returns (bool){\n    require(msg.sender==_owner, \"Lottery creator is the only one who can declare a winner\");\n    _found_winner=true;\n    return true;\n  }\n\n  function get_lottery_balance() public view returns (uint) {\n    return address(this).balance;\n  }\n\n  function random(uint max_val) private view returns(uint) {\n   return uint(keccak256(abi.encodePacked(block.difficulty, now, _participants))) % max_val;\n  }\n\n  function get_winner() public  returns (address){\n    require(_found_winner, \"Winner not found yet\");\n    require(_winner!=msg.sender, \"Winner cannot be the lottery creator\");\n    _allow_new_participants=false;\n    require(!_allow_new_participants, \"at this, points, new participants should be allowed!\");\n    uint winner_index = random(_participants.length);\n    _winner = _participants[winner_index];\n    return _winner;\n  }\n}\n",
  "sourcePath": "/home/john/personal/smart-lottery/lottery-contract/contracts/lottery.sol",
  "compiler": {
    "name": "solc",
    "version": "0.5.16+commit.9c3226ce.Emscripten.clang"
  },
  "schemaVersion": "3.4.3",
  "updatedAt": "2022-06-05T21:54:26.964Z",
  "devdoc": {
    "methods": {}
  },
  "userdoc": {
    "methods": {}
  }
}